:02000002E0001C
:10000000970000009380C00B828000000000000079
:10001000EE0E0E00EE0E0E00EE0E0E0000000000C2
:10002000EE0E0E00EE0E0E00EE0E0E00EE0E0E00A8
:10003000EE0E0E00EE0E0E00EE0E0E00EE0E0E0098
:10004000EE0E0E00EE0E0E00EE0E0E000000000092
:1000500000000000000000000000000000000000A0
:100060000000000000000000000000000000000090
:100070000000000000000000000000000000000080
:100080000000000000000000000000000000000070
:100090000000000000000000000000000000000060
:1000A0000000000000000000000000000000000050
:1000B0000000000000000000000000007370043029
:1000C000370505E013050508930510002320B5004A
:1000D000370500E013050501930530082320B5001E
:1000E000370505E0930500002320B500370505E03E
:1000F00013054506B7256B00938575082320B500C9
:10010000370505E013050506930590002320B5008B
:100110009711F21F938101FE1721F21F130181EE47
:100120009302002073A0027D97020000938282ED6B
:100130007390723097120000938282D47390C27EC3
:1001400073E0C07E971200009382C2CB739052304E
:100150009302F00373B0523073E0513073F0023207
:10016000170500001305450A970500009385C5098A
:100170006302B50217460000130686FB63FCC50048
:100180008322050023A055001305450093854500F3
:10019000E3E8C5FE17450000130585F99705F21F32
:1001A000938545E61706F21F1306C67663FCC50065
:1001B0008322050023A055001305450093854500C3
:1001C000E3E8C5FE1705F21F1305C5749385018F7B
:1001D0006378B5002320050013054500E36CB5FEE8
:1001E000EF106009173500001305C5AFEF20B02EE2
:1001F000EF20B0321305000093050000EF204019F6
:040200006F0000008B
:10024000464C41534858495000000000464C415329
:1002500048000000494C4D00574F524B3100000000
:10026000574F524B32000000574F524B33000000A3
:100270004D43415553453A203078256C780D0A009E
:100280004D45504320203A203078256C780D0A00E7
:100290004D5456414C203A203078256C780D0A0098
:1002A00031323A30393A3335000000004E6F762053
:1002B00020342032303233004E75636C6569205330
:1002C000444B204275696C642054696D653A202561
:1002D000732C2025730D0A00446F776E6C6F616478
:1002E000204D6F64653A2025730D0A004350552058
:1002F0004672657175656E637920256420487A0DB4
:100300000A00000040020E004C020E0054020E00D3
:1003100058020E0060020E0068020E0061727261E7
:10032000795B25645D5B25645D203D207B0A0000D0
:100330002020000025642C20000000000A0000009E
:100340007D3B0A000A546865206E756D62657273A4
:1003500020666F7220696D616765207265636F67E3
:100360006E6974696F6E206172653A2564000000E1
:100370004C617965722031206368616E6E656C2016
:100380003120636F6E766F6C7574696F6E20726565
:1003900073756C74733A00004C617965722031207A
:1003A0006368616E6E656C203120706F6F6C696E72
:1003B0006720726573756C74733A00004C617965DF
:1003C000722032206368616E6E656C20315F31206F
:1003D000636F6E766F6C7574696F6E20726573757E
:1003E0006C74733A000000004C6179657220322011
:1003F0006368616E6E656C20315F3220636F6E766C
:100400006F6C7574696F6E20726573756C74733A76
:10041000000000004C617965722032206368616ED3
:100420006E656C20315F3320636F6E766F6C757410
:10043000696F6E20726573756C74733A000000000A
:100440004C617965722031206368616E6E656C2045
:100450003220636F6E766F6C7574696F6E20726593
:1004600073756C74733A00004C61796572203120A9
:100470006368616E6E656C203220706F6F6C696EA0
:100480006720726573756C74733A00004C6179650E
:10049000722032206368616E6E656C20325F31209D
:1004A000636F6E766F6C7574696F6E2072657375AD
:1004B0006C74733A000000004C6179657220322040
:1004C0006368616E6E656C20325F3220636F6E769A
:1004D0006F6C7574696F6E20726573756C74733AA6
:1004E000000000004C617965722032206368616E03
:1004F0006E656C20325F3320636F6E766F6C75743F
:10050000696F6E20726573756C74733A0000000039
:100510004C617965722031206368616E6E656C2074
:100520003320636F6E766F6C7574696F6E207265C1
:1005300073756C74733A00004C61796572203120D8
:100540006368616E6E656C203320706F6F6C696ECE
:100550006720726573756C74733A00004C6179653D
:10056000722032206368616E6E656C20335F3120CB
:10057000636F6E766F6C7574696F6E2072657375DC
:100580006C74733A000000004C617965722032206F
:100590006368616E6E656C20335F3220636F6E76C8
:1005A0006F6C7574696F6E20726573756C74733AD5
:1005B000000000004C617965722032206368616E32
:1005C0006E656C20335F3320636F6E766F6C75746D
:1005D000696F6E20726573756C74733A0000000069
:1005E0004C617965722032206368616E6E656C20A3
:1005F000312066696E616C20636F6E766F6C757406
:10060000696F6E20726573756C74733A0000000038
:100610004C617965722032206368616E6E656C2072
:10062000322066696E616C20636F6E766F6C7574D4
:10063000696F6E20726573756C74733A0000000008
:100640004C617965722032206368616E6E656C2042
:10065000332066696E616C20636F6E766F6C7574A3
:10066000696F6E20726573756C74733A00000000D8
:100670004C617965722032206368616E6E656C2012
:10068000312066696E616C20706F6F6C696E6720D7
:10069000726573756C74733A000000004C61796583
:1006A000722032206368616E6E656C20322066694C
:1006B0006E616C20706F6F6C696E67207265737508
:1006C0006C74733A000000004C617965722032202E
:1006D0006368616E6E656C20332066696E616C20A4
:1006E000706F6F6C696E6720726573756C74733AA6
:1006F0000000000054686520726573756C74206F8B
:1007000066207468652066756C6C20636F6E6E651C
:100710006374696F6E2069733A00000025640900F4
:10072000FEFF1800FEFFF8FF13001300FCFF14008B
:100730001100FBFFF8FF2200FDFFEEFF00000100AB
:10074000FDFF02000F000600F2FFF5FFE7FFFDFFCF
:10075000DFFFE3FFF2FF0400F1FF12001A00FAFFCF
:10076000F5FF090003000200FDFFFAFF0D00230062
:100770001400EFFFE0FFFCFF2700EBFFCCFF0A00B7
:10078000FEFFEFFF30000D00090009000A00F3FF33
:1007900018000F00EFFFECFF14002800E0FFF9FF46
:1007A00001001700DDFFF1FF0B00F4FFEDFFE8FF94
:1007B0000200F4FFEFFFF2FF1100F4FFF7FF20004B
:1007C000D9FF3100D4FFD6FFDDFF4000FEFFFEFF62
:1007D000EDFF1000F5FF0500C5FF21000300FAFF43
:1007E000E3FFF5FFEDFFE4FF0F00110016001B0013
:1007F0003800290009000000FDFFEDFFDEFFE3FFE8
:100800001E0006000E00F1FF3A001400FDFFF1FF8C
:100810001200FAFF02001400E7FFFAFF04002A00AA
:100820001C0028003D000600FEFFEEFFF6FFF4FF6F
:10083000D0FFF1FFDDFF02000000FAFF0C00100006
:10084000CCFFF9FF0F001E00F2FF110001001200A3
:10085000E1FFDBFFD0FF030001001C0018001700C0
:100860001E00140008000400170003000B000B001A
:10087000000001001100FCFF2500FAFF1400F0FF4A
:10088000FAFF26001700FEFFE8FF0000FBFFF7FF5E
:10089000E6FF13001200FCFFEDFFF8FF0000080068
:1008A0001400200020002C002700E9FFF3FF1A00AD
:1008B000EFFFDBFF0600ECFF1B001600F5FFF5FF66
:1008C000F9FFD0FFCCFFD7FFFBFF17000000EFFFC1
:1008D000190018001E001C00F8FFF6FFE6FFF7FFE6
:1008E0003500EEFFF0FFF7FF0800EFFF2C00EFFFF1
:1008F00012000F00F2FFFAFFF0FF01000800F1FF05
:1009000001001200EAFFE7FFE6FFF3FFE0FFB3FF9D
:10091000000001001200E9FFEDFF12001F00290096
:10092000F0FF020008003900FCFF08000E0025005F
:1009300018000500FEFF00002C0004000C00EEFF74
:100940000D00E3FFDBFF21001B00F1FFFBFF0300B5
:1009500015000C002300F8FF0000FBFF0B00050052
:1009600018002C001800E7FF0600FFFF0B00DCFF5B
:10097000F6FF170029002A00EDFFE6FFF6FFF9FF5A
:10098000F1FFE2FFF3FFFFFFE4FFE2FF0F002300B0
:10099000E1FFEAFF08000900E5FF05000E000D0079
:1009A000F4FFD1FFBCFF1A00F4FFC1FFC5FF09002F
:1009B0000D00EFFF090011001C0010000B000D00DE
:1009C000F0FFD3FFE1FF1800170023000B000D001C
:1009D0000F00F1FF0F000C0013000B000000FBFFE5
:1009E00015001C002B0005001E001700020000006F
:1009F0001300E9FFF3FF2900FDFFE2FFDEFFE8FF40
:100A00001100FEFF0900DEFFFCFF0C0039000400AE
:100A10000E00F6FFD7FFEAFFC7FF0100000000004D
:100A20000E00FFFFFAFF0700F6FFEEFF0D001700B4
:100A300028002A00F6FFE3FFFAFFD0FF0B001000AA
:100A4000E3FF0F00FFFF1400F9FF0C000300150087
:100A5000EFFFF8FFF4FF1200D4FFFFFF07000500CF
:100A6000F7FF14001700190032001200E9FF04001C
:100A700000001900EFFF04000B00EDFF0000ECFF89
:100A8000160028000E00FBFFF4FFE9FF0E000D002A
:100A9000D1FFC9FFF8FF060015002400EDFF02009A
:100AA000F3FF0A001C000800CEFF0A0007000D003B
:100AB00000001F00FDFFCAFFF2FF1300E3FFBEFFAF
:100AC000C4FFE0FF09000100010016001E00FAFF4C
:100AD0000A000F003700FCFF03000000F1FF0900CF
:100AE0000000000000000000000000000000000006
:100AF00000000000000000000000000000000000F6
:100B000000000000000000000000000000000000E5
:100B100000000000000000000000000000000000D5
:100B200000000000000000000000000000000000C5
:100B300000000000000000000000000000000000B5
:100B4000232D302B20000000686C4C006566674543
:100B50004647000030313233343536373839414278
:100B600043444546000000003031323334353637D7
:100B70003839616263646566000000007833000004
:100B80008E3300004E3300004E3300004E33000021
:100B90004E3300008E3300004E3300004E33000011
:100BA0004E3300004E330000E6340000CC3300002A
:100BB000B83400004E3300004E33000016350000FC
:100BC0004E330000CC3300004E3300004E330000A3
:100BD000C0340000011122CE00102326A4FEFD57D0
:100BE0003E85724405618280011106CE22CC001040
:100BF0002326A4FE2545F93FAA873E85F24062449C
:100C000005618280011122CE00102326A4FEFD572B
:100C10003E85724405618280011106CE22CC00100F
:100C20002326A4FE2324B4FE2545E93FAA873E855A
:100C3000F240624405618280011122CE0010232619
:100C4000A4FE85473E85724405618280011122CE53
:100C500000102326A4FEFD573E8572440561828064
:100C6000011106CE22CC00102326A4FE2324B4FEBC
:100C70002322C4FE2545D93FAA873E85F24062441F
:100C800005618280797106D622D40018232EA4FC37
:100C9000232CB4FC232AC4FC8327C4FD99C3FD572D
:100CA00039A8832784FD2326F4FE370501E061235C
:100CB000AA873E878327C4FE2380E70085473E85B9
:100CC000B250225445618280011122CE00102326A9
:100CD000A4FE9707F21F9387E7C198438327C4FEBA
:100CE0003E979387018F636EF7009707F21F9387F4
:100CF00067C098438327C4FE3E979387013163F40E
:100D0000E700FD5705A89707F21F9387A7BE9843F2
:100D10008327C4FE3E979707F21F9387A7BD98C30A
:100D20009707F21F938707BD98438327C4FEB30735
:100D3000F040BA973E85724405618280797106D68B
:100D400022D40018232EA4FC232CB4FC232AC4FC98
:100D50000325C4FDEF204022AA8799E3FD57B1A8DF
:100D6000832784FD2324F4FE232604FE3DA80327C5
:100D700084FE8327C4FEBA9703C70700A9476316FA
:100D8000F700B545370501E0B521032784FE832729
:100D9000C4FEBA9783C70700BE85370501E09929CD
:100DA0008327C4FE85072326F4FE0327C4FE83277A
:100DB00044FDE36EF7FA832744FD3E85B25022548A
:100DC000456182800000000000000000000000007B
:100DD0000000000000000000000000000000000013
:100DE0000000000000000000000000000000000003
:100DF00000000000000000000000000000000000F3
:100E00005D7106C012C216C41AC61EC82ACA2ECCEC
:100E100032CE36D03AD23ED442DC46DEF2C0F6C202
:100E2000FAC4FEC673D0E57E7350F67E73D0B67EEC
:100E3000732520348A850923D2527390427CC25292
:100E400073901234B2527390223482401242A24202
:100E50003243C2435245E245724682561257A25768
:100E60006258F258064E964E264FB64F6161730097
:100E70002030000000000000000000005D7106C08E
:100E800012C216C41AC61EC82ACA2ECC32CE36D0FA
:100E90003AD23ED442DC46DEF2C0F6C2FAC4FEC606
:100EA00073D0E57E7350F67E73D0B67EF390D07E1D
:100EB00073700430D2527390427CC25273901234D9
:100EC000B2527390223482401242A2423243C24351
:100ED0005245E245724682561257A2576258F2585E
:100EE000064E964E264FB64F61617300203001A02A
:100EF0000000011106CE22CC0010AA87A307F4FE41
:100F00008347F4FEBE85370501E0ED240100F24081
:100F1000624405618280011106CE22CC0010232696
:100F2000A4FE8327C4FE93F7F70F3E85D93701004F
:100F3000F240624405618280011106CE22CC00108D
:100F40002326A4FE19A88327C4FE1387170023268F
:100F5000E4FE83C707003E85693F8327C4FE83C73D
:100F60000700F5F301000100F24062440561828050
:100F70005D7186C6A2C48008232EA4FA9307C4FC20
:100F80002326F4FE8327C4FB63D607041305D0028F
:100F900059378327C4FBB307F040232EF4FA1DA86A
:100FA0000327C4FBA947B367F70213F7F70F83279B
:100FB000C4FE938617002326D4FE13070703137776
:100FC000F70F2380E7000327C4FBA947B347F702C5
:100FD000232EF4FA8327C4FBE1F79307C4FC03270D
:100FE000C4FEE30FF7FA21A88327C4FEFD172326CA
:100FF000F4FE8327C4FE83C707003E85293F93077D
:10100000C4FC0327C4FEE311F7FE01000100B64053
:101010002644616182805D7106D622D40018232E99
:10102000A4FC4CC010C454C418C85CC8232C0401D0
:10103000232E140193070402232CF4FC832784FD40
:1010400091172324F4FE232604FEC1A88327C4FE9F
:101050000327C4FDBA9703C7070093075002631024
:10106000F70A41A08327C4FE0327C4FDBA9703C72C
:10107000070093073006631CF700832784FE13875D
:1010800047002324E4FE9C433E85713551A083270D
:10109000C4FE0327C4FDBA9703C7070093073007B0
:1010A000631CF700832784FE138747002324E4FE94
:1010B0009C433E855135A9A88327C4FE0327C4FD60
:1010C000BA9703C7070093074006631CF7008327FE
:1010D00084FE138747002324E4FE9C433E85493D5C
:1010E00005A88327C4FE85072326F4FE8327C4FEB4
:1010F0000327C4FDBA9783C70700ADF711A883275C
:10110000C4FE0327C4FDBA9783C707003E85213577
:101110008327C4FE85072326F4FE8327C4FE032706
:10112000C4FDBA9783C7070095F301003E85B2500E
:10113000225461618280411122C60008B70700E095
:101140009C4B8583FD8B3E85324441018280011199
:1011500006CE22CC26CA00102326A4FE2324B4FEE9
:101160002322C4FE8327C4FE93B7170093F7F70F1B
:1011700099C3FD5795A897F7F11F9387E7778443A5
:101180005D3FAA8785073E87832784FEB307F70262
:10119000B3D7F4021387F7FF8327C4FE98CF8327C2
:1011A000C4FE9C4713E717008327C4FE98C7832714
:1011B000C4FEDC4713E717008327C4FED8C7832784
:1011C000C4FE9C5313F7F7F88327C4FE98D38327F4
:1011D000C4FE9853832744FE920793F707075D8F59
:1011E0008327C4FE98D381473E85F2406244D244AF
:1011F00005618280011122CE00102326A4FEAE8755
:10120000A305F4FE8327C4FE93B7170093F7F70FE7
:1012100099C3FD5729A801008327C4FE9C43E3CD51
:1012200007FE0347B4FE8327C4FE98C381473E856B
:10123000724405618280797122D60018232EA4FCA5
:101240008327C4FD93B7170093F7F70F81C7930760
:10125000F00F31A88327C4FDDC432326F4FE832747
:10126000C4FEE3C907FE8327C4FE93F7F70F3E854C
:10127000325445618280411122C626C4000897F786
:10128000F11F9387676737E7F5051307071098C3C2
:10129000854473A0A47CC16473A0A47C0100324483
:1012A000A24441018280011106CE22CC00102326E7
:1012B000A4FE2324B4FE8325C4FE17F5FFFF130507
:1012C00065FBEF10B039F3271034BE808687BE85EA
:1012D00017F5FFFF130505FBEF105038F3273034E7
:1012E000BE808687BE8517F5FFFF1305A5FAEF10B0
:1012F000F03601A0011122CE0010232604FE1DA00D
:1013000017070000130767FA97F6F11F93864661E7
:101310008327C4FE8A07B69798C38327C4FE850730
:101320002326F4FE0327C4FEB147E3DBE7FC0100FC
:101330000100724405618280797106D622D40018BA
:10134000232EA4FC232CB4FC0327C4FD8567FD17C2
:10135000F98F2324F4FE032784FEAD4763EEE700F4
:1013600017F7F11F1307C75B832784FE8A07BA9715
:101370009C432326F4FE2DA0032784FE8567FD17DA
:10138000631AF70097F7F11F938787599C5B232611
:10139000F4FE39A097070000938727F12326F4FE77
:1013A0008327C4FE81CB8327C4FE832584FD0325C8
:1013B000C4FD829781473E85B250225445618280A8
:1013C000797106D622D4001897F7FFFF9387C7F3E9
:1013D0008843CC439047D447984BDC4B232CA4FC48
:1013E000232EB4FC2320C4FE2322D4FE2324E4FEB7
:1013F0002326F4FE17F6FFFF1306C6EA97F5FFFF54
:10140000938505EB17F5FFFF130545EB293183277E
:10141000C4FEBE8517F5FFFF130545ECED3E97F7BB
:10142000F11F9387674D9C43BE8517F5FFFF13059A
:1014300025ECD5360100B25022544561828001115D
:1014400022CE0010A30504FEB70700D20347B4FE66
:10145000A385E7000100B70700D2DC43D583BD8B2D
:101460002326F4FEB70700D283C7070013F7F70F50
:10147000B70700D2059B1377F70F2380E700B70764
:1014800000D283C7070093F7F70F1397870161878F
:101490008327C4FE93F7F70F860793F7F70FE2074A
:1014A000E187F98BE207E187D98F1397870161877D
:1014B000B70700D21377F70F2380E7000100010080
:1014C000724405618280411106C622C400080D469F
:1014D000F16793850720370501E09539D535193D2A
:1014E000B93F0100B240224441018280411122C62D
:1014F000000801003244410182805971A2D6CAD449
:10150000CED2D2D0D6CEDACCDECAE2C8E6C68018B9
:101510002A832E852324C4FAB6853A862320F4FA3A
:10152000C28646879A872317F4FAAA872316F4FA05
:10153000AE872313F4FAB2872312F4FAB687231F77
:10154000F4F8BA87231EF4F88317C4FA3E877D1790
:101550002320E4FC3E873A8C814C1357CC01939BAB
:101560004C00B36B7701131B4C00031744FABA8687
:10157000FD16232ED4FABA86368A814A9356CA01BA
:1015800093994A00B3E9360113194A0083160400FF
:1015900036867D16232CC4FA3686328F814F135639
:1015A000BF01939E5F00B36ED601131E5F0023122E
:1015B00004FC29A2231304FCDDA0232604FC23142D
:1015C00004FC49A8231504FCBDA0831544FC0316A4
:1015D00084FC2E96B2853E863386C5020606832598
:1015E00084FAB295031564FC0316A4FC2A96060639
:1015F0002E96031606003285031684FCBA85330640
:10160000B6020606832504FAB2950316A4FC060664
:101610002E96031606003306C5028325C4FC2E96BB
:101620002326C4FC0316A4FC42064182050642069A
:1016300041822315C4FC8315A4FC031644FAE3C6B7
:10164000C5F8031684FC4206418205064206418223
:101650002314C4FC831584FC031664FAE3C4C5F6A2
:101660000316E4F98325C4FC2E962326C4FC031636
:1016700044FCB6853306B6020A064C40B295031602
:1016800064FC0A062E968325C4FC0CC2031664FC77
:10169000420641820506420641822313C4FC83159B
:1016A00064FC03160400E3CAC5F0031644FC4206BA
:1016B00041820506420641822312C4FC831544FC84
:1016C0000316C4F9E3C8C5EE0100010036542659DB
:1016D0009659065AF64A664BD64B464CB64C65614F
:1016E0008280797106D622D426D20018AA872E8746
:1016F000232CC4FC231FF4FCBA87231EF4FC8314A0
:10170000C4FDA687FD172324F4FEA6873E838143EC
:101710009357C30193984300B3E81701131843008C
:101720008317E4FD0317C4FD3A86BE8517F5FFFF56
:10173000130505BFCD30231604FE9DA817F5FFFF46
:10174000130545BFC938231704FE3DA88317C4FEFF
:101750002687B387E7028607032784FD3E97831712
:10176000E4FE8607BA9783970700BE8517F5FFFF4B
:10177000130585BC4D308317E4FEC207C18385077E
:10178000C207C1832317F4FE0317E4FE8317C4FDC9
:10179000E34EF7FA17F5FFFF130585BAAD38831747
:1017A000C4FEC207C1838507C207C1832316F4FEA6
:1017B0000317C4FE8317E4FDE342F7F817F5FFFFB4
:1017C000130545B8EFF03F850100B2502254925402
:1017D00045618280797106D622D426D20018AA8764
:1017E0002E87232CC4FC231FF4FCBA87231EF4FC91
:1017F0008314C4FDA687FD172324F4FEA6873E8329
:1018000081439357B30193985300B3E8170113181A
:1018100053008317E4FD0317C4FD3A86BE8517F510
:10182000FFFF1305E5AFEFF00FFF231604FEADA891
:1018300017F5FFFF130505B0EFF0EFFD231704FECA
:101840003DA88317C4FE2687B387E7028A070327CC
:1018500084FD3E978317E4FE8A07BA979C43BE85B2
:1018600017F5FFFF130545ADEFF0EFFA8317E4FE20
:10187000C207C1838507C207C1832317F4FE03177C
:10188000E4FE8317C4FDE34EF7FA17F5FFFF1305D7
:1018900025ABEFF04FF88317C4FEC207C18385075D
:1018A000C207C1832316F4FE0317C4FE8317E4FDA9
:1018B000E340F7F817F5FFFF1305C5A8EFF0AFF504
:1018C0000100B25022549254456182805D71A2C6DB
:1018D000CAC4CEC280082324C4FC2322D4FC3A8686
:1018E000BE86232E04FB4687AA872317F4FCAE8707
:1018F0002316F4FCB2872311F4FCB6872310F4FC02
:10190000BA87231DF4FA031704FCBA87FD172320B6
:10191000F4FEBA873E8981499357C901939F4900D4
:10192000B3EFF701131F490083164400B687FD1774
:10193000232EF4FCB6873E8E814E9357CE019393AF
:101940004E00B3E3770013134E00231204FE7DAA6A
:10195000231304FE51AA232604FE231404FE11A21D
:10196000231504FEC5A0031644FE831784FE3E968D
:10197000B94763C1C706031644FE831784FEB297B6
:101980003E86B2878E07918F8E073E86832784FC22
:101990003E96831564FE8317A4FEAE978607B29722
:1019A00083970700BE85831784FE3A86B387C702F4
:1019B00086070326C4FB3E968317A4FE8607B297CC
:1019C00083970700B387F5020326C4FEB297232648
:1019D000F4FE85A0031644FE831784FEB2973E866C
:1019E000B2878E07918F8E07938707CF032644FC1B
:1019F0003E96831564FE8317A4FEAE978607B297C2
:101A000083970700BE85831784FE3A86B387C70293
:101A100086070326C4FB3E968317A4FE8607B2976B
:101A200083970700B387F5020326C4FEB2972326E7
:101A3000F4FE8317A4FEC207C1838507C207C183D2
:101A40002315F4FE0316A4FE831704FCE34DF6F001
:101A5000831784FEC207C1838507C207C18323148D
:101A6000F4FE031684FE831724FCE34BF6EE832773
:101A7000C4FEA1872326F4FE8317A4FB0326C4FE1D
:101A8000B2972326F4FE0326C4FE9307F07F63D7A4
:101A9000C7009307F07F2326F4FE19A80326C4FE8F
:101AA000930700806356F600930700802326F4FE18
:101AB000831744FE3686B387C70286071044B305F2
:101AC000F600831764FE0326C4FE4206418686079D
:101AD000AE972390C700831764FEC207C1838507B2
:101AE000C207C1832313F4FE0316C4FC831704FC4E
:101AF0001D8E831764FEE350F6E6831744FEC2078B
:101B0000C1838507C207C1832312F4FE0316E4FCD8
:101B1000831724FC1D8E831744FEE35BF6E201006D
:101B2000010036442649964961618280397122DE7E
:101B300080002322E4FC2320F4FCAA872317F4FC72
:101B4000AE872316F4FCB2872315F4FCB687231462
:101B5000F4FC0317C4FCBA87FD172320F4FEBA87F0
:101B60003E8F814F9357CF01939E4F00B3EED70125
:101B7000131E4F008316C4FC831784FCB3C7F60200
:101B80009386F7FF232ED4FCBE863683814393567B
:101B9000C30193984300B3E81601131843002313BD
:101BA00004FEA5AA231404FEB1A2031664FE831644
:101BB000A4FCB306D6023686BA86B306D6028606DB
:101BC000032644FC3696831584FE831684FCB38674
:101BD000D5028606B29683D606002317D4FE2315B7
:101BE00004FE75A8231604FE61A8031664FE83167E
:101BF000A4FC3306D6028316A4FEB2963686BA86B5
:101C0000B306D6028606032644FC3696831584FE68
:101C1000831684FCB385D5028316C4FEAE96860671
:101C2000B296839606000316E4FE6352D6040316AA
:101C300064FE8316A4FC3306D6028316A4FEB29675
:101C40003686BA86B306D6028606032644FC369646
:101C5000831584FE831684FCB385D5028316C4FEE7
:101C6000AE968606B29683D606002317D4FE831658
:101C7000C4FEC206C1828506C206C1822316D4FEF6
:101C80000316C4FE831684FCE341D6F68316A4FE35
:101C9000C206C1828506C206C1822315D4FE031680
:101CA000A4FE8316A4FCE34FD6F2831664FE3E86A0
:101CB000B386C6028606032604FCB305D6000315C8
:101CC00084FE8356E4FE13960601418663530600A4
:101CD000814613960601418693161500AE96239011
:101CE000C600831684FEC206C1828506C206C18272
:101CF0002314D4FE031684FE8315C4FC831684FCCF
:101D0000B3C6D502E343D6EA831664FEC206C18297
:101D10008506C206C1822313D4FE031664FE831512
:101D2000E4FC8316A4FCB3C6D502E34DD6E601005D
:101D30000100725421618280397122DE80002322E9
:101D4000E4FC2320F4FCAA872317F4FCAE872316B7
:101D5000F4FCB2872315F4FCB6872314F4FC831635
:101D6000C4FCB687FD17232CF4FCB6873E8F814F49
:101D70009357BF01939E5F00B3EED701131E5F0020
:101D80000317C4FC831784FC3347F7029307F7FF5C
:101D9000232AF4FCBA873E8381439357B301939877
:101DA0005300B3E8170113185300232E04FC89A233
:101DB000232004FE39AA0316A4FC8327C4FDB3071D
:101DC000F6023E86B687B307F6028A07032644FC6E
:101DD0003E96831584FC832704FEB387F5028A07A9
:101DE000B2979C432326F4FE232204FE65A02324FD
:101DF00004FE71A00316A4FC8327C4FD3306F6027B
:101E0000832744FEB2973E86B687B307F6028A0759
:101E1000032644FC3E96831584FC832704FEB38589
:101E2000F502832784FEAE978A07B2979C43032668
:101E3000C4FE6351F6040316A4FC8327C4FD3306D5
:101E4000F602832744FEB2973E86B687B307F602B2
:101E50008A07032644FC3E96831584FC832704FEF0
:101E6000B385F502832784FEAE978A07B2979C4319
:101E70002326F4FE832784FE85072324F4FE83179C
:101E800084FC032684FEE347F6F6832744FE850799
:101E90002322F4FE8317A4FC032644FEE349F6F450
:101EA0003A868327C4FDB307F6028A07032604FC9B
:101EB000B305F6008327C4FE63D3070081470326DA
:101EC00004FE0A062E961CC2832704FE85072320E3
:101ED000F4FE0316C4FC831784FCB347F602032602
:101EE00004FEE34AF6EC8327C4FD8507232EF4FCA9
:101EF0000316E4FC8317A4FCB347F6020326C4FDD3
:101F0000E348F6EA010001007254216182801D71EC
:101F1000A2CECACCCECAD2C8D6C6DAC4DEC280101F
:101F2000232CB4FA232AC4FA2328D4FABA86232607
:101F3000F4FA4287AA87231FF4FAB687231EF4FA1D
:101F4000BA872315F4FA832784FB1387F7FF232E20
:101F5000E4FC3E873A8B814B1357BB01939A5B009D
:101F6000B36A5701131A5B00032784FB9306F7FF3C
:101F70002326D4FCBA86368981499356B901939FAA
:101F80005900B3EFF601131F5900832684FB138613
:101F9000F6FF2324C4FC3686328E814E1356BE01D2
:101FA00093935E00B363760013135E00232804FC52
:101FB000C1A0232A04FC55A08315A4FA0546639307
:101FC000C502BE85032604FD3386C5020A068325A5
:101FD00044FBB295032644FD0A062E961042232C9C
:101FE000C4FC81A0BE85032604FD3386C5020A0613
:101FF000832544FBB295032644FD0A062E960C4227
:102000003A85032604FD3306C5020A06032504FBB0
:102010003295032644FD0A062A9610422E96232C5A
:10202000C4FC0316C4FB832584FD2E96232CC4FC1C
:10203000B685032604FD3386C5020A068325C4FA45
:10204000B295032644FD0A062E96832584FD0CC214
:10205000032644FD0506232AC4FC832544FD0326EC
:1020600084FBE3CBC5F4032604FD05062328C4FC4A
:102070000316E4FB832504FDE3CDC5F20100010056
:1020800076446649D649464AB64A264B964B256160
:102090008280797122D60018232EA4FC232CB4FC54
:1020A000232AC4FC2328D4FC231704FE231604FE91
:1020B000BDA0231504FEB1A08317C4FE9207032719
:1020C000C4FDB306F7000317A4FE8317E4FE8A07D6
:1020D000032604FDB2970A073697184398C383175F
:1020E000E4FEC207C1838507C207C1832317F4FE3C
:1020F0008317A4FEC207C1838507C207C1832315C6
:10210000F4FE0317A4FE8D47E3D8E7FA8317C4FE55
:10211000C207C1838507C207C1832316F4FE0317D4
:10212000C4FE8D47E3D7E7F8231404FEBDA02313B4
:1021300004FEB1A0831784FE9207032784FDB30633
:10214000F700031764FE8317E4FE8A07032604FDE5
:10215000B2970A073697184398C38317E4FEC2075D
:10216000C1838507C207C1832317F4FE831764FE6A
:10217000C207C1838507C207C1832313F4FE031777
:1021800064FE8D47E3D8E7FA831784FEC207C18354
:102190008507C207C1832314F4FE031784FE8D470D
:1021A000E3D7E7F8231204FEBDA0231104FEB1A07B
:1021B000831744FE9207032744FDB306F700031775
:1021C00024FE8317E4FE8A07032604FDB2970A075C
:1021D0003697184398C38317E4FEC207C183850767
:1021E000C207C1832317F4FE831724FEC207C183ED
:1021F0008507C207C1832311F4FE031724FE8D4710
:10220000E3D8E7FA831744FEC207C1838507C207F4
:10221000C1832312F4FE031744FE8D47E3D7E7F88A
:1022200001000100325445618280797122D6001884
:10223000232EA4FC232CB4FC232AC4FC231704FE65
:1022400071A0232404FE231304FE81A8831764FED7
:102250008A070327C4FDBA9794430317E4FEBA879D
:102260008607BA9796073E87832784FD3E97831794
:1022700064FE8607BA9783970700B387F6020327A1
:1022800084FEBA972324F4FE831764FEC207C18339
:102290008507C207C1832313F4FE031764FE930767
:1022A000F002E3D5E7FA8317E4FE8A07032744FD2B
:1022B000BA97032784FE1D8798C38317E4FEC207DD
:1022C000C1838507C207C1832317F4FE0317E4FE09
:1022D000A547E3D8E7F6010001003254456182804A
:1022E000797106D622D40018232EA4FC231704FEED
:1022F0008327C4FD9C432324F4FE85472313F4FE67
:1023000091A0831764FE8A070327C4FDBA979C43F4
:10231000032784FE635FF700831764FE8A070327A1
:10232000C4FDBA979C432324F4FE835764FE23170D
:10233000F4FE831764FEC207C1838507C207C18309
:102340002313F4FE031764FEA547E3DCE7FA231228
:1023500004FE1DA08317E4FEBE8517E5FFFF1305ED
:10236000A5FEEF00B02F831744FEC207C183850787
:10237000C207C1832312F4FE031744FE9147E3DB37
:10238000E7FC8317E4FE3E85B2502254456182800B
:1023900069712326111223248112001A7D731A9168
:1023A00017E7FFFF13070738930784C2BA8613079E
:1023B000003C3A86B6853E85EF00101D17E5FFFF0D
:1023C000130545FBEF00D03A97E7F11F93870753BA
:1023D00003970700FD779387877B930604FFB697E3
:1023E0003EC4E1473EC2E1473EC0BA8817E8F11F4C
:1023F000130848239547154797E6F11F938686F102
:1024000017E6F11F130606C0F1457145EFF00FCC3A
:10241000FD779387877B130704FFBA973E86E145D4
:102420006145EFF00FAC17E5FFFF130525F7EF004F
:102430003034FD7793878769130704FFB306F700ED
:10244000FD779387877B130704FF3E97B6878946FE
:102450000946E1456145EFF06FEDFD7793878769A8
:10246000130704FFBA973E86B1453145EFF06FA7D9
:1024700017E5FFFF1305C5F4EF00902FFD77938755
:102480008769130704FF3306F700FD7793878759A1
:10249000130704FFBA973EC2A1473EC0A1480148B6
:1024A00097E7F11F9387C72115479546B1453145F9
:1024B000EFF0AF84FD7793878759130704FFBA972E
:1024C0003E86A1452145EFF0EFB017E5FFFF13056C
:1024D000E5F1EF00F029FD7793878769130704FF83
:1024E0003306F700FD7793878749130704FFBA97F0
:1024F0003EC2A1473EC0A148014897E7F11F93871C
:10250000E72515479546B1453145EFE01FFFFD77BB
:1025100093878749130704FFBA973E86A145214553
:10252000EFF04FAB17E5FFFF130505EFEF00502469
:10253000FD7793878769130704FF3306F700FD775C
:1025400093878739130704FFBA973EC2A1473EC05D
:10255000A148014897E7F11F9387072A1547954639
:10256000B1453145EFE07FF9FD7793878739130750
:1025700004FFBA973E86A1452145EFF0AFA5FD7750
:1025800093878729130704FF3E97FD779387872951
:10259000930604FFBE96FD7793878759130604FFC1
:1025A0003E960548BA870147A14521458D32FD7702
:1025B00093878719130704FF3E97FD779387872931
:1025C000930604FFBE96FD7793878749130604FFA1
:1025D0003E960548BA870147A14521450D3AFD774A
:1025E00093878709130704FF3E97FD779387872911
:1025F000930604FFBE96FD7793878739130604FF81
:102600003E960548BA870147A1452145093217E59D
:10261000FFFF130525E3EF00B01597E7F11F938740
:10262000E72D03972700FD779387877B930604FFA9
:10263000B6973EC4E1473EC2E1473EC0BA8817E8BC
:10264000F11F130868019547154797E6F11F938618
:1026500066CC17E6F11F1306E69AF1457145EFF0D7
:10266000EFA6FD779387877B130704FFBA973E8613
:10267000E1456145EFF0EF8617E5FFFF130505DF44
:10268000EF00100FFD7793878769130704FFB306E8
:10269000F700FD779387877B130704FF3E97B68784
:1026A00089460946E1456145EFF04FC8FD779387BC
:1026B0008769130704FFBA973E86B1453145EFF0AD
:1026C0004F8217E5FFFF1305A5DCEF00700AFD77C9
:1026D00093878769130704FF3306F700FD77938715
:1026E0008759130704FFBA973EC2A1473EC0A148CD
:1026F000014897E7F11F9387E7FF15479546B145D6
:102700003145EFE09FDFFD7793878759130704FF7B
:10271000BA973E86A1452145EFF0CF8B17E5FFFF25
:102720001305C5D9EF00D004FD7793878769130798
:1027300004FF3306F700FD7793878749130704FFEB
:10274000BA973EC2A1473EC0A148014897E7F11F92
:102750009387070415479546B1453145EFE0FFD90A
:10276000FD7793878749130704FFBA973E86A145F3
:102770002145EFF02F8617E5FFFF1305E5D6EF00A3
:10278000207FFD7793878769130704FF3306F700DF
:10279000FD7793878739130704FFBA973EC2A14795
:1027A0003EC0A148014897E7F11F938727081547C6
:1027B0009546B1453145EFE05FD4FD779387873982
:1027C000130704FFBA973E86A1452145EFF08F809D
:1027D000FD7793878729130704FF3E97FD7793873B
:1027E0008759930604FFBE96FD77938787291306C2
:1027F00004FF3E960148BA870147A1452145EFF005
:102800000FF1FD7793878719130704FF3E97FD7734
:1028100093878749930604FFBE96FD7793878719B0
:10282000130604FF3E960148BA870147A14521459A
:10283000EFF0EFEDFD7793878709130704FF3E97CD
:10284000FD7793878739930604FFBE96FD779387BC
:102850008709130604FF3E960148BA870147A14540
:102860002145EFF0CFEA17E5FFFF1305A5CAEF00FA
:10287000207097E7F11F9387670803974700FD775C
:102880009387877B930604FFB6973EC4E1473EC219
:10289000E1473EC0BA8817E8F11F130828DF9547C3
:1028A000154797E6F11F9386E6A617D6F11F130684
:1028B0006675F1457145EFF06F81FD779387877BF2
:1028C000130704FFBA973E86E1456145EFE07FE1DB
:1028D00017E5FFFF130585C6EF008069FD77938735
:1028E0008769130704FFB306F700FD779387877B9B
:1028F000130704FF3E97B68789460946E1456145BF
:10290000EFF0CFA2FD7793878769130704FFBA978B
:102910003E86B1453145EFE0DFDC17E5FFFF1305EB
:1029200025C4B925FD7793878769130704FF33060C
:10293000F700FD7793878759130704FFBA973EC2C4
:10294000A1473EC0A148014897E7F11F9387C7DD23
:1029500015479546B1453145EFE03FBAFD7793877E
:102960008759130704FFBA973E86A1452145EFE03A
:102970007FE617E5FFFF130565C1DD2BFD77938724
:102980008769130704FF3306F700FD7793878749AC
:10299000130704FFBA973EC2A1473EC0A1480148B1
:1029A00097E7F11F938707E215479546B1453145F3
:1029B000EFE0BFB4FD7793878749130704FFBA9709
:1029C0003E86A1452145EFE0FFE017E5FFFF130537
:1029D000A5BE792BFD7793878769130704FF33061C
:1029E000F700FD7793878739130704FFBA973EC234
:1029F000A1473EC0A148014897E7F11F938747E6EA
:102A000015479546B1453145EFE03FAFFD779387D8
:102A10008739130704FFBA973E86A1452145EFE0A9
:102A20007FDB9387018103970700FD7793878729D1
:102A3000930604FFB385F600FD77938787599306C5
:102A400004FFBE96FD7793878729130604FF3E9601
:102A50000148AE87A1452145EFF06FCB93870181F7
:102A600003972700FD7793878719930604FFB385A3
:102A7000F600FD7793878749930604FFBE96FD779E
:102A800093878719130604FF3E960148AE87A14538
:102A90002145EFF0CFC79387018103974700FD776A
:102AA00093878709930604FFB385F600FD77938724
:102AB0008739930604FFBE96FD779387870913062F
:102AC00004FF3E960148AE87A1452145EFF02FC493
:102AD00017E5FFFF130505B16129FD779387872966
:102AE000130704FFBA973E86A1452145EFE09FCE2C
:102AF00017E5FFFF130505B2A529FD779387871911
:102B0000130704FFBA973E86A1452145EFE09FCC0D
:102B100017E5FFFF130505B3A129FD779387870903
:102B2000130704FFBA973E86A1452145EFE09FCAEF
:102B3000FD7793878705130704FFB306F700FD773A
:102B400093878729130704FF3E97B687894609466E
:102B5000A1452145EFF04F9EFD77E107130704FFE4
:102B6000B306F700FD7793878719130704FF3E9795
:102B7000B68789460946A1452145EFF0EF9BFD77D1
:102B8000938787FD130704FFB306F700FD7793874C
:102B90008709130704FF3E97B68789460946A14572
:102BA0002145EFF06F9917E5FFFF1305A5ACC92686
:102BB000FD7793878705130704FFBA973E869145F3
:102BC0001145EFE03FC117E5FFFF130565AD4D2649
:102BD000FD77E107130704FFBA973E86914511453B
:102BE000EFE05FBF17E5FFFF130545AE5126FD7708
:102BF000938787FD130704FFBA973E8691451145D9
:102C0000EFE05FBDFD77938787F1130704FFB306FD
:102C1000F700FD77938787FD130704FF3306F7005E
:102C2000FD77E107130704FF3E97FD77938787053C
:102C3000930504FFAE97BA853E85EFF08FC5FD770B
:102C4000938707EF130704FFB306F700130784C247
:102C5000FD77938787F1130604FFB2973686BA850E
:102C60003E85EFF08FDC17E5FFFF1305E5A8092689
:102C7000232604FE35A0FD77130704FF3E97832724
:102C8000C4FE8A07BA9783A707EFBE8517E5FFFF43
:102C9000130505A9E1228327C4FE85072326F4FE38
:102CA0000327C4FEA547E3D8E7FCFD77938707EF2A
:102CB000130704FFBA973E85EFF08FE2AA8723241B
:102CC000F4FE81473E8505631A918320C1120324D7
:102CD000811255618280AA8581460146014595A1F0
:102CE0004111971700009387874422C417140000EE
:102CF0001304E4431D8C26C206C60984BE8419E46D
:102D00002244B240924441016FE04FFE7D1493177C
:102D10002400A6979C438297DDB7411197170000C6
:102D20009387E74022C417140000130444401D8C0D
:102D300026C24AC006C6098481443E89639884023B
:102D4000EFE06FF8971700009387673E17140000B5
:102D50001304E43D1D8C098481443E89639F8400F3
:102D6000B240224492440249410182809397240058
:102D7000CA979C4385048297D1B793972400CA973A
:102D80009C4385048297D9BFB3C7A5008D8BB3063A
:102D9000C50081E78D4763EEC700AA876378D50A2F
:102DA00003C7050085078505A38FE7FEE3EAD7FE85
:102DB000828013773500AA8711CB03C705008507EA
:102DC0008505A38FE7FE13F73700FDB713F7C6FF9E
:102DD000130607FE63FBC70483A3050083A2450017
:102DE00083AF850003AFC50083AE050103AE450187
:102DF00003A3850183A8C50123A0770023A2570060
:102E000003A8050223A4F70123A6E70123A8D701FD
:102E100023AAC70123AC670023AE1701938545029F
:102E20009387470223AE07FF75B72E883E866360FF
:102E3000E6021388D7FF0146636607010D071D8F61
:102E40001376C7FFB297B295E3ECD7F4828083285C
:102E5000080011061108232E16FFD1BF5D7122D480
:102E600006D62A842EDA32DC36DEBAC0BEC2C2C42E
:102E7000C6C603A5818111C51C4D81E72AC655230D
:102E800032450C455418228636CEEF00B028B25099
:102E9000225461618280011126CA4AC806CE22CC22
:102EA0004EC652C4AA842E8901C51C4D91E3952BB0
:102EB0009C4C804499E32685AD2397E7FFFF9387D9
:102EC00067C4631CF402C0408357C400A18BB1C720
:102ED0001C48A1C7FD59294A1C4483450900FD1718
:102EE000B1E91CC463DE07062286A9452685792040
:102EF000FD576308F502294535A097E7FFFF938743
:102F000067C26314F4008044C1B797E7FFFF93875B
:102F100067BDE31BF4FAC04445BFA2852685392A64
:102F200055D97D55F2406244D2444249B249224AC1
:102F3000056182801CC4050963D70700184C63CB68
:102F4000E700638945011C401387170018C02380E0
:102F5000B70059B7228626851520E31F35F7D1B76C
:102F60001C401387170018C029472380E70061B76A
:102F7000AA8503A5818105B76FD01FCC011122CC92
:102F800026CA4AC806CE4EC6AA842E89328401C5F6
:102F90001C4D91E3792197E7FFFF9387A7B663194B
:102FA000F406C0401C4C1CC48357C400A18BC9C389
:102FB0001C48BDCF1C4808409379F90F1379F90FCD
:102FC0001D8D5C486346F500A2852685352E2DE5CE
:102FD0001C440505FD171CC41C401387170018C0AE
:102FE000238037015C486389A7008357C400858B21
:102FF00081CBA9476316F900A285268531260DED00
:10300000F2406244D244B2494A8542490561828015
:1030100097E7FFFF938707B16314F400804459B723
:1030200097E7FFFF938707ACE31EF4F6C0449DBF0C
:10303000A285268521203DDD7D59D9B7411122C4C5
:1030400026C24AC006C683A481812A892E8489C4E7
:103050009C4C99E32685F12697E7FFFF938787AA83
:103060006317F402C0408317C4001397070193F657
:1030700087004183ADEA9376070195EA254723202F
:10308000E90093E707042316F4007D5571A897E73C
:10309000FFFF938727A96314F4008044E9B797E7FB
:1030A000FFFF938727A4E310F4FCC0446DBF118B8E
:1030B0000DC74C5889C9930744046384F5004A85B9
:1030C000A525232A04028357C4002322040093F772
:1030D000B7FD2316F4001C481CC08357C40093E7B7
:1030E00087002316F4001C4881EF8357C4001307A0
:1030F000002093F707286385E700A2854A85DD2134
:103100008317C4001397070193F6170041839DC2EC
:10311000544823240400B306D04014CC144801457D
:1031200081E61377070831FFB240224492440249F6
:103130004101828093762700014691E2504810C4F5
:10314000F1BFAA8817D5F11F1305C57C1C4191EF6B
:103150001387018618C117D5F1FF1305A5EABA87B1
:1031600009C51C412324F708BA87D8437D487D55FB
:103170006346E804638D080203A887086300080417
:1031800013152700429510C1032308100546331676
:10319000E6003363C300232068102320D508894646
:1031A0006397D80083264810558E2322C8109306B3
:1031B00017000A07D4C3BA978CC70145828083D70A
:1031C000C500011122CC26CA06CE4AC84EC613F746
:1031D0008700AA842E8465E7D8416347E000B841A0
:1031E0006344E0000145C1A058546DDF03A9040009
:1031F0009396370123A0040063DE060668488357D0
:10320000C400918B99C75C401D8D5C5899C33C40AC
:103210001D8D5C540C502A86814626858297FD5769
:103220000357C400631DF5009440F54763E4D708D5
:10323000B70740208507B3D7D700858BA5CF1C489B
:10324000232204001CC09317370163D80700FD57E1
:103250006314F5009C4091E368C84C5823A02401F6
:10326000D1D1930744046384F50026857529232A68
:1032700004028DBF0C508546014626850297FD57F6
:10328000E31FF5F69C40A5DF75476385E7005947C6
:103290006395E70023A02401B1B78357C40093E7E7
:1032A00007042316F400F2406244D2444249B24972
:1032B00005618280136707042316E400EDB783A934
:1032C0000501E38109F203A905008D8B23A03501D7
:1032D00033093941014791E3D84918C4E35420F137
:1032E0001C540C50CA864E8626858297634AA000DD
:1032F0008357C4007D5593E707042316F40065B790
:10330000AA993309A940D9BF9C49B9CF011122CC50
:1033100006CE2A8411C51C4D81E72EC61922B2455E
:1033200097D7FFFF9387077E639BF5004C408397F9
:10333000C50095C722856244F240056149B597D71B
:10334000FFFF9387277E6394F5000C44CDB797D792
:10335000FFFF93872779E39CF5FC4C44C9BFF240FB
:10336000624401450561828001458280411122C489
:1033700006C62A842316B5002317C500232005009E
:103380002322050023240500232205062328050007
:10339000232A0500232C0500214681451305C50578
:1033A000C52497170000938747835CD097170000C8
:1033B0009387A7851CD4971700009387E7895CD46F
:1033C000971700009387A78CB24000D01CD82244E6
:1033D0004101828097050000938545F391A2411138
:1033E00026C2130680069384F5FFB384C4024AC044
:1033F0002E8922C406C693854407D12E2A8419C972
:103400002320050023222501310508C413868406E4
:103410008145BD24B24022852244924402494101A3
:1034200082801C4DADE3411122C406C697070000FF
:10343000938787FA1CD52324050423260504232813
:10344000050483A7C1812A846314F50085471CCD38
:1034500022851D2848C02285052808C422852D20E4
:1034600048C4484001469145113708440546A545E2
:10347000F53D48440946C945D53D8547B2401CCC79
:103480002244410182808280411126C283A4C181ED
:103490009C4C4AC006C622C42A8999E32685513726
:1034A000938484048044DC40FD1763D607009C406D
:1034B000B1CF8440C5BF0317C40031E7C17785078A
:1034C00023220406232004002322040023240400D2
:1034D0005CC423280400232A0400232C0400214672
:1034E00081451305C405692A232A0402232C0402FA
:1034F0002324040423260404B24022852244924457
:103500000249410182801304840679BF91454A85AE
:10351000F93588C02A8451FDB1472320F900E9BF5D
:10352000797122D44AD04ECE52CC5AC85EC606D645
:1035300026D256CA2A892E8A130485048149054B4E
:10354000FD5B0444832A4400FD1A63D00A02004054
:103550006DF8B250225492540259624AD24A424BF8
:10356000B24B4E85F2494561828083D7C400637BAC
:10357000FB008397E40063877701A6854A85029A5A
:10358000B3E9A90093848406C1B75971CAD02E89C2
:103590008395E500A2D4A6D286D63284B68463DCB5
:1035A00005008357C90023A0040093F707088DE3A3
:1035B0009307004005A030003527E34405FE32475D
:1035C000BD67F98F7977BA9793B717009CC0CDB7CD
:1035D00093070004B6501CC0265496540659014562
:1035E0006561828083D7C500011122CC06CE26CA30
:1035F0004AC8898B2E8489CF930774041CC01CC8C9
:1036000085475CC8F2406244D244424905618280E9
:10361000740030002A89953FA245AA844A85452A2C
:1036200001ED8317C40013F7072069FFF19B93E7AF
:1036300027002316F400C9B7970700009387C7D95E
:103640002324F9028357C40008C008C893E7070879
:103650002316F400A2475CC8B24789CF8315E40063
:103660004A85752501C98357C400F19B93E717006C
:103670002316F4000355C400C98C2316940059B7CF
:103680003D432A876373C3029377F700BDEFADE52F
:10369000937606FF3D8ABA960CC34CC30CC74CC741
:1036A0004107E36BD7FE11E28280B306C3408A066E
:1036B0009702000096966780A6002307B700A3062E
:1036C000B7002306B700A305B7002305B700A3047E
:1036D000B7002304B700A303B7002303B700A30276
:1036E000B7002302B700A301B7002301B700A3006E
:1036F000B7002300B700828093F5F50F93968500FD
:10370000D58D93960501D58D61B7939627009702C5
:10371000000096968682E78086FA9680C1171D8FF4
:103720003E96E374C3F8A5B7D5C183A7C5FF0111C1
:1037300022CC06CE1384C5FF63D307003E942AC66D
:10374000352D17D7F11F1307271D1C4332453A8625
:1037500081EB2322040000C36244F240056105A509
:10376000637EF40014403307D4006396E700984367
:10377000DC43369718C05CC000C2F9BF3E87DC430B
:1037800099C3E37DF4FE14433306D700631F86001C
:103790001040B29614C33306D700E39FC7FA904394
:1037A000DC43B29614C35CC345BF6375C400B14724
:1037B0001CC15DB71040B306C4006396D7009443A4
:1037C000DC43B29614C05CC040C379B7828001115B
:1037D00026CA93843500F1984AC806CE22CC4EC63C
:1037E000A104B1472A8963F5F404B14463E4B40445
:1037F0004A85692397D7F11F938707129843BE869E
:103800003A8421E417D4F11F130444111C4089E7C2
:1038100081454A85692E08C0A6854A85492EFD59ED
:1038200063183507B1472320F9004A85892B31A059
:10383000E3DE04FAB1472320F9000145F240624477
:10384000D2444249B249056182801C40858F63CED3
:1038500007022D466376F6001CC03E9404C029A0E2
:103860005C40631287029CC24A85112B1305B40089
:103870009307440061993307F540E301F5FC3A945E
:10388000898F1CC065BF5CC3C5B72287404095BF08
:10389000130435007198E30385FCB305A4404A8501
:1038A0003926E31D35FBBDBF1C46FD171CC663DA78
:1038B0000700184E63C5E700A9476394F5006FF051
:1038C000EFEB1C422E851387170018C22380B70028
:1038D0008280011122CC26CA4AC84EC652C406CEE6
:1038E0002A89AE893284B304D6007D5A63149400C9
:1038F000014509A8834504004E864A8575370504AD
:10390000E31645FFF2406244D2444249B249224A9A
:1039100005618280357122CD26CB4AC94EC706CFBC
:1039200052C556C35AC1DEDEE2DCE6DAAA89AE84AD
:103930003289368409C51C4D99E3EFF09FAE97D7C5
:10394000FFFF9387271C639BF40C83A4490083D754
:10395000C400A18BF5C79C48E5C793070002A304E8
:10396000F1029307000302D22305F10222C6930B52
:10397000500297DAFFFF938AEA1C054C294B4A84D0
:103980008347040099C36390770FB30C2441630D00
:103990002401E6864A86A6854E85253FFD576306A7
:1039A000F51E9257E6973ED283470400638F071CAB
:1039B000FD571309140002C802CE3ECA02CCA30967
:1039C000010482D48345090015465685592EC24705
:1039D0001304190059E913F7070109C71307000277
:1039E000A309E10413F7870009C71307B002A3096D
:1039F000E104834609001307A0026380E608F2474A
:103A00004A848146254603470400930514001307A2
:103A100007FD6379E60AB5CA3ECE85A897D7FFFFB2
:103A2000938747106395F40083A489000DB797D757
:103A3000FFFF9387270BE39CF4F083A4C90001BF29
:103A4000A6854E85EFF08FDF09D97D55FA406A448F
:103A5000DA444A49BA492A4A9A4A0A4BF65B665CF2
:103A6000D65C0D618280050421BF330555413315B5
:103A7000AC00C98F3EC82289B1B7324793064700D0
:103A8000184336C6634907023ACE0347040093073A
:103A9000E002631FF704034714009307A002631BAF
:103AA000F702B2470904138747009C433AC663C133
:103AB00007023ECA35A83307E04093E727003ACE15
:103AC0003EC8E1B7B38767032E848546BA9725BF02
:103AD000FD57C5B7050402CA8146814725460347FD
:103AE000040093051400130707FD6376E606F1F260
:103AF000834504000D4617D5FFFF130525059524C2
:103B000011CD97D7FFFF938767041D8D930700049E
:103B1000B397A700424505045D8D2AC8834504007C
:103B2000194617D5FFFF1305A50213091400230436
:103B3000B102052C3DC197C7F1FF9387A74C95E7CC
:103B40004247B2471377071009CF91073EC69257F5
:103B5000D2973ED22DB5B38767032E848546BA9798
:103B6000BDBF9D07E19BA107D5B778009706000070
:103B7000938666D626860C084E8597000000E700DF
:103B80000000FD572A8AE314F5FC83D7C40093F79D
:103B90000704E39C07EA125555BD7800970600001C
:103BA000938666D326860C084E85CD24D9BF411155
:103BB00022C42A842E8523A6018E06C6EFD0CF907C
:103BC000FD576316F50083A7C18E91C31CC0B24098
:103BD000224441018280411122C42E848395E50054
:103BE00006C6312B634905007C48AA977CC8B240C1
:103BF0002244410182808357C4007D777D17F98F6D
:103C00002316F400EDB783D7C500011122CC26CAD4
:103C10004AC84EC606CE93F70710AA842E8432896E
:103C2000B68991C78395E5008946014629228357C5
:103C3000C4007D777D17F98F8315E4002316F40007
:103C40006244F240CE864A86B24942492685D24431
:103C500005613DA8411122C42E848395E50006C666
:103C6000D928FD570357C400631BF500FD77FD17E6
:103C7000F98F2316F400B240224441018280856707
:103C8000D98F2316F40068C8FDB78395E5003DA0E1
:103C9000411122C42A842E85B285368623A6018E40
:103CA00006C6EFD0AF89FD576316F50083A7C18E16
:103CB00091C31CC0B240224441018280411122C400
:103CC0002A842E8523A6018E06C6EFC0FFF1FD577C
:103CD0006316F50083A7C18E91C31CC0B240224475
:103CE00041018280411122C42A842E85B28523A6F7
:103CF000018E06C6EFC05FF2FD576316F50083A77D
:103D0000C18E91C31CC0B240224441018280411146
:103D100022C42A842E8523A6018E06C6EFC0DFF1B9
:103D2000FD576316F50083A7C18E91C31CC0B24036
:103D3000224441018280411122C42A842E85B28509
:103D4000368623A6018E06C6EFC09FF1FD57631687
:103D5000F50083A7C18E91C31CC0B240224441012B
:103D6000828093F5F50F2A966314C5000145828081
:103D700083470500E38DB7FE0505FDB7828082808D
:103D8000797152CC9C493A8A984522D426D24ECE9B
:103D900056CA06D64AD05AC85EC6AA892E84B284AC
:103DA000B68A63D3E700BA879CC00347340419C3BB
:103DB00085079CC01C4093F7070281C79C40890778
:103DC0009CC00329040013796900631A0900130BCE
:103DD0009401FD5B5C449840998F634CF9048347E0
:103DE0003404B336F0001C4093F70702A5EB13062A
:103DF0003404D6854E85029AFD576303F5041C40B2
:103E000011469840998B544481446397C700B3840A
:103E1000E64063D3040081441C4418486354F7000F
:103E2000998FBE94014969047D5B6398240501451F
:103E300009A885465A86D6854E85029A631E750165
:103E40007D55B250225492540259F249624AD24AE4
:103E5000424BB24B456182800509ADBF3307D400A8
:103E600013060003A301C7040347540493871600F5
:103E7000A2978906A381E7049DBF85462286D68541
:103E80004E85029AE30E65FB050945B7797122D488
:103E900026D24AD04ECE06D652CC56CA5AC82E8406
:103EA000B6899386350483C5850193078007AA8464
:103EB000328963ECB7009307200663EDB700638691
:103EC000051C93078005638BF512930A24042301D4
:103ED000B40415A89387D5F993F7F70F5546E36611
:103EE000F6FE17D6FFFF1306A6C98A07B2979C43B2
:103EF000B29782871C43930A2404938647009C430D
:103F000014C32301F404854765A21C40084313F63B
:103F10000708930545000DC21C410CC363D8070078
:103F20001307D002B307F040A301E40417D6FFFF44
:103F3000130686C22947A9A013F607041C410CC327
:103F400071DEC207C187D9BF10401C431378060831
:103F5000138547006305080008C39C4339A0137606
:103F6000060408C37DDA83D707001307F00617D6C7
:103F7000FFFF130666BE6384E50E2947A301040410
:103F80004C400CC463C5050008406D9908C099E316
:103F9000B68A99CDB68AB3F5E702FD1AB29583C504
:103FA00005002380BA00BE85B3D7E702E3F5E5FE3E
:103FB000A147631EF7001C40858B91CB58401C48DD
:103FC00063C7E70093070003A38FFAFEFD1AB386C9
:103FD000564114C84E87CA867000A28526854D3387
:103FE0007D5A631B450D7D55B2502254925402599F
:103FF000F249624AD24A424B45618280A302B4042C
:1040000017D6FFFF130646B50C40084313F8050802
:104010001C411105630D080208C313F7150001C701
:1040200093E505020CC04147B1FB0C4093F5F5FD4B
:104030000CC0A9B71C4093E707021CC09307800778
:10404000A302F40417D6FFFF130646B275BF13F898
:10405000050408C3E30308FCC207C1837DBF2147F1
:1040600031BF10401C434C481378060813854700A5
:104070006306080008C39C438CC301A808C31376D9
:1040800006049C4375DA2390B70023280400B68AFF
:1040900091B71C43504081459386470014C383AABF
:1040A000070056857D3901C53305554148C05C4040
:1040B0001CC8A301040439BF14485686CA85268546
:1040C0008299E30245F31C40898B8DE7B24748444F
:1040D000E35CF5F03E8509BF85465686CA85268590
:1040E0008299E30265F1050A5C443247998FE34502
:1040F000FAFEE9BF014A930A94017D5BF5B74111CD
:1041000022C42A842E85B285368623A6018E06C651
:10411000EFC05FB7FD576316F50083A7C18E91C34B
:0A4120001CC0B2402244410182801D
:10412C000000000000000000000000000000000083
:10413C000000000000000000000000000000000073
:10414C000000000000000000000000000000000063
:10415C000000000000000000000000000000000053
:10416C000000000000000000000000000000000043
:10417C000000000000000000000000000000000033
:10418C000000000000000000000000000000000023
:10419C000000000000000000000000000000000013
:1041AC00000000000000000000000000000084007F
:1041BC00FF00E1000C000000000000000000000007
:1041CC0000000000000000000000000000000000E3
:1041DC0000000000000000000000000000000000D3
:1041EC00000003008000F600B70080002E000000E5
:1041FC0000000000000000000000000000000000B3
:10420C0000000000000000000000000000000000A2
:10421C00000000000000000000005B00FE008600B3
:10422C000000000000000000000000000000000082
:10423C000000000000000000000000000000000072
:10424C000000000000000000000000000000000062
:10425C003600EB00CC00070000000000000000005E
:10426C000000000000000000000000000000000042
:10427C000000000000000000000000000000000032
:10428C0000000000000000009E00FC007800000010
:10429C000000000000000000000000000000000012
:1042AC000000000000000000000000000000000002
:1042BC0000000000000000000000000000003F00B3
:1042CC00FB00A50000000000000000000000000042
:1042DC0000000000000000000000000000000000D2
:1042EC0000000000000000000000000000000000C2
:1042FC000000000000006B00FE008A0000000000BF
:10430C0000000000000000000000000000000000A1
:10431C000000000000000000000000000000000091
:10432C000000000000000000000000000000B600CB
:10433C00E500280000000000000000000000000064
:10434C000000000000000000000000000000000061
:10435C000000000000000000000000000000000051
:10436C00000000001100E8008500000000000000C3
:10437C000000000000000000000000000000000031
:10438C000000000000000000000000000000000021
:10439C000000000000000000000000008500FE008E
:1043AC006900000000000000000000000000000098
:1043BC0000000000000000000000000000000000F1
:1043CC0000000000000000000000000000000000E1
:1043DC0000000000D800FE001B00000000000000E0
:1043EC0000000000000000000000000000000000C1
:1043FC0000000000000000000000000000000000B1
:10440C00000000000000000000001200E300C200E9
:10441C0003000000000000000000000000001E006F
:10442C000000000000000000000000000000000080
:10443C000000000000000000000000000000000070
:10444C0000003A00FE0073000000000000000000B5
:10445C0019008B009B00F200EB00800000000000B4
:10446C000000000000000000000000000000000040
:10447C00000000000000000000003A00FE004B00AD
:10448C000000000000005300E000FB009B009800BF
:10449C00FE00D3000000000000000000000000003F
:1044AC000000000000000000000000000000000000
:1044BC0000003A00FE006800000000005200F90005
:1044CC00D9003C0000002500FE0078000000000030
:1044DC0000000000000000000000000000000000D0
:1044EC00000000000000000000003A00FE00480040
:1044FC0000001200F7009F000E0000000700C9002A
:10450C00FE0045000000000000000000000000005C
:10451C00000000000000000000000000000000008F
:10452C0000002300EF009300010005009B004800F1
:10453C0000000400C100FD007A000600000000002D
:10454C00000000000000000000000000000000005F
:10455C00000000000000000000000000D800FE0079
:10456C006100000000000D004900E100FE00790030
:10457C00000000000000000000000000000000002F
:10458C00000000000000000000000000000000001F
:10459C00000000004F00F400F800E200E200E70029
:1045AC00FE00F30073000600000000000000000095
:1045BC0000000000000000000000000000000000EF
:1045CC00000000000000000000000000000072006D
:1045DC00B100FE00FE00EB0098002B000000000074
:1045EC0000000000000000000000000000000000BF
:1045FC0000000000000000000000000000000000AF
:10460C00000000000000000000000000000000009E
:10461C00000000000000000000000000000000008E
:10462C00000000000000000000000000000000007E
:10463C00000000000000000000000000000000006E
:10464C00000000000000000000000000000000005E
:10465C00000000000000000000000000000000004E
:10466C00000000000000000000000000000000003E
:10467C00000000000000000000000000000000002E
:10468C00000000000000000000000000000000001E
:10469C00000000000000000000000000000000000E
:1046AC0000000000000000000000000000000000FE
:1046BC0000000000000000000000000000000000EE
:1046CC0000000000000000000000000000000000DE
:1046DC0000000000000000000000000000000000CE
:1046EC0000000000000000000000000000000000BE
:1046FC0000000000000000000000000000000000AE
:10470C00000000000000000000000000000000009D
:10471C00000000000000000000000000000000008D
:10472C00000000000000000000000000000000007D
:10473C00000000000000000000000000000000006D
:10474C00060000001B0029003500E7FF1300FDFFE9
:10475C000B003E00F1FFF3FF0E00F5FFF6FFD2FF5A
:10476C00D8FFDBFFD6FFD9FFE7FFE3FFD6FFE2FF61
:10477C00DCFF0000080000000600F5FFFDFF1A003A
:10478C00F0FF19000A0024000F001200210046005F
:10479C0041000D003A006C0076002E0031001D0027
:1047AC00580035004E00000021001A00330029008B
:1047BC0047001B001B0020000C00F8FFD8FF020074
:1047CC00E0FFDDFFD5FFDCFFC3FFCEFFBCFFE5FF45
:1047DC00D5FFD9FFDAFF0300F9FF00000100030049
:1047EC0001000C00FDFFF9FFF9FF0A00F2FFEBFFDF
:1047FC00EAFFE9FFEEFFE1FFF8FFE7FFD6FFD7FF87
:10480C00FAFFF8FFE2FFD8FFE4FFFDFF18000000FD
:10481C00FEFFEAFF0500FAFFE4FF0000EDFF1F00BA
:10482C0047000C00C8FF1E004A002100D6FF0F00F5
:10483C0032001100D6FFF5FF2A001600E6FFF8FF44
:10484C00F4FF0000F0FFEBFF0C00EBFFF2FFFCFFAE
:10485C0008001400E9FFF5FF10000600DCFFE3FF81
:10486C00E5FF0300E3FFF3FFFAFFF3FFE7FFEFFFC2
:10487C00F6FF0500F5FF000000000D00060011001A
:10488C00FCFF0900F4FF0E000B00FCFF07001800F2
:10489C001A000A00FAFF0B002A001C000400EAFFB1
:1048AC0012001600F3FFF0FFF6FF00000000BFFF40
:1048BC00AEFFD1FFFBFF15001E000F002000F3FF21
:1048CC002A00430048003000F7FFFBFFEFFFF2FF28
:1048DC0002000000DDFFE6FFE7FFFAFFE2FF000049
:1048EC00E5FF0D001000EFFFFAFFECFFEDFFF0FF0E
:1048FC00F7FF00000500FEFF0500160001000C008C
:10490C0029003C001000FAFF15001D000B00F0FF01
:10491C00F0FF00000400E9FFF0FFF9FFFEFF0B00C1
:10492C0016000800EBFFF9FF15001A000000050047
:10493C0000002E00190010001200FFFF16000400EA
:10494C00FDFFF8FF0700000002000D001E002E0006
:10495C00E3FF150018001D004200EAFFE6FFCCFF44
:10496C00F7FF2E001300E4FFE1FFEAFF0400140040
:10497C0015000200F7FF0500DFFF0000EAFFE5FF6E
:10498C00E8FFD2FFDEFFFCFF1500F8FFDAFFD6FFD1
:10499C000000FEFF1000D4FFC8FF1C0016001F0013
:1049AC00F8FFDFFF280019000A00F8FFF8FF0000ED
:1049BC0000000000000B0E00200B0E00E00A0E00A1
:1049CC0000000000000000000000000000000000DB
:1049DC0000000000000000000000000000000000CB
:1049EC0000000000000000000000000000000000BB
:1049FC0000000000000000000000000000000000AB
:104A0C00000000000000000000000000000000009A
:104A1C00E009002000E1F50507000F002F00000061
:104A2C000F00D5FF13000000900800209008002014
:04000003E00000BC5D
:00000001FF
